{
  "contractName": "ToDaMoonV3",
  "abi": [
    {
      "inputs": [
        {
          "internalType": "string",
          "name": "_name",
          "type": "string"
        },
        {
          "internalType": "string",
          "name": "_symbol",
          "type": "string"
        },
        {
          "internalType": "string",
          "name": "_initBaseURI",
          "type": "string"
        }
      ],
      "stateMutability": "nonpayable",
      "type": "constructor"
    },
    {
      "anonymous": false,
      "inputs": [
        {
          "indexed": true,
          "internalType": "address",
          "name": "owner",
          "type": "address"
        },
        {
          "indexed": true,
          "internalType": "address",
          "name": "approved",
          "type": "address"
        },
        {
          "indexed": true,
          "internalType": "uint256",
          "name": "tokenId",
          "type": "uint256"
        }
      ],
      "name": "Approval",
      "type": "event"
    },
    {
      "anonymous": false,
      "inputs": [
        {
          "indexed": true,
          "internalType": "address",
          "name": "owner",
          "type": "address"
        },
        {
          "indexed": true,
          "internalType": "address",
          "name": "operator",
          "type": "address"
        },
        {
          "indexed": false,
          "internalType": "bool",
          "name": "approved",
          "type": "bool"
        }
      ],
      "name": "ApprovalForAll",
      "type": "event"
    },
    {
      "anonymous": false,
      "inputs": [
        {
          "indexed": true,
          "internalType": "address",
          "name": "previousOwner",
          "type": "address"
        },
        {
          "indexed": true,
          "internalType": "address",
          "name": "newOwner",
          "type": "address"
        }
      ],
      "name": "OwnershipTransferred",
      "type": "event"
    },
    {
      "anonymous": false,
      "inputs": [
        {
          "indexed": true,
          "internalType": "address",
          "name": "from",
          "type": "address"
        },
        {
          "indexed": true,
          "internalType": "address",
          "name": "to",
          "type": "address"
        },
        {
          "indexed": true,
          "internalType": "uint256",
          "name": "tokenId",
          "type": "uint256"
        }
      ],
      "name": "Transfer",
      "type": "event"
    },
    {
      "inputs": [
        {
          "internalType": "address",
          "name": "to",
          "type": "address"
        },
        {
          "internalType": "uint256",
          "name": "tokenId",
          "type": "uint256"
        }
      ],
      "name": "approve",
      "outputs": [],
      "stateMutability": "nonpayable",
      "type": "function"
    },
    {
      "inputs": [
        {
          "internalType": "address",
          "name": "owner",
          "type": "address"
        }
      ],
      "name": "balanceOf",
      "outputs": [
        {
          "internalType": "uint256",
          "name": "",
          "type": "uint256"
        }
      ],
      "stateMutability": "view",
      "type": "function",
      "constant": true
    },
    {
      "inputs": [],
      "name": "baseExtension",
      "outputs": [
        {
          "internalType": "string",
          "name": "",
          "type": "string"
        }
      ],
      "stateMutability": "view",
      "type": "function",
      "constant": true
    },
    {
      "inputs": [],
      "name": "baseURI",
      "outputs": [
        {
          "internalType": "string",
          "name": "",
          "type": "string"
        }
      ],
      "stateMutability": "view",
      "type": "function",
      "constant": true
    },
    {
      "inputs": [],
      "name": "cost",
      "outputs": [
        {
          "internalType": "uint256",
          "name": "",
          "type": "uint256"
        }
      ],
      "stateMutability": "view",
      "type": "function",
      "constant": true
    },
    {
      "inputs": [
        {
          "internalType": "uint256",
          "name": "tokenId",
          "type": "uint256"
        }
      ],
      "name": "getApproved",
      "outputs": [
        {
          "internalType": "address",
          "name": "",
          "type": "address"
        }
      ],
      "stateMutability": "view",
      "type": "function",
      "constant": true
    },
    {
      "inputs": [
        {
          "internalType": "address",
          "name": "owner",
          "type": "address"
        },
        {
          "internalType": "address",
          "name": "operator",
          "type": "address"
        }
      ],
      "name": "isApprovedForAll",
      "outputs": [
        {
          "internalType": "bool",
          "name": "",
          "type": "bool"
        }
      ],
      "stateMutability": "view",
      "type": "function",
      "constant": true
    },
    {
      "inputs": [],
      "name": "maxMintAmount",
      "outputs": [
        {
          "internalType": "uint256",
          "name": "",
          "type": "uint256"
        }
      ],
      "stateMutability": "view",
      "type": "function",
      "constant": true
    },
    {
      "inputs": [],
      "name": "maxSupply",
      "outputs": [
        {
          "internalType": "uint256",
          "name": "",
          "type": "uint256"
        }
      ],
      "stateMutability": "view",
      "type": "function",
      "constant": true
    },
    {
      "inputs": [],
      "name": "name",
      "outputs": [
        {
          "internalType": "string",
          "name": "",
          "type": "string"
        }
      ],
      "stateMutability": "view",
      "type": "function",
      "constant": true
    },
    {
      "inputs": [],
      "name": "owner",
      "outputs": [
        {
          "internalType": "address",
          "name": "",
          "type": "address"
        }
      ],
      "stateMutability": "view",
      "type": "function",
      "constant": true
    },
    {
      "inputs": [
        {
          "internalType": "uint256",
          "name": "tokenId",
          "type": "uint256"
        }
      ],
      "name": "ownerOf",
      "outputs": [
        {
          "internalType": "address",
          "name": "",
          "type": "address"
        }
      ],
      "stateMutability": "view",
      "type": "function",
      "constant": true
    },
    {
      "inputs": [],
      "name": "paused",
      "outputs": [
        {
          "internalType": "bool",
          "name": "",
          "type": "bool"
        }
      ],
      "stateMutability": "view",
      "type": "function",
      "constant": true
    },
    {
      "inputs": [],
      "name": "renounceOwnership",
      "outputs": [],
      "stateMutability": "nonpayable",
      "type": "function"
    },
    {
      "inputs": [
        {
          "internalType": "address",
          "name": "from",
          "type": "address"
        },
        {
          "internalType": "address",
          "name": "to",
          "type": "address"
        },
        {
          "internalType": "uint256",
          "name": "tokenId",
          "type": "uint256"
        }
      ],
      "name": "safeTransferFrom",
      "outputs": [],
      "stateMutability": "nonpayable",
      "type": "function"
    },
    {
      "inputs": [
        {
          "internalType": "address",
          "name": "from",
          "type": "address"
        },
        {
          "internalType": "address",
          "name": "to",
          "type": "address"
        },
        {
          "internalType": "uint256",
          "name": "tokenId",
          "type": "uint256"
        },
        {
          "internalType": "bytes",
          "name": "_data",
          "type": "bytes"
        }
      ],
      "name": "safeTransferFrom",
      "outputs": [],
      "stateMutability": "nonpayable",
      "type": "function"
    },
    {
      "inputs": [
        {
          "internalType": "address",
          "name": "operator",
          "type": "address"
        },
        {
          "internalType": "bool",
          "name": "approved",
          "type": "bool"
        }
      ],
      "name": "setApprovalForAll",
      "outputs": [],
      "stateMutability": "nonpayable",
      "type": "function"
    },
    {
      "inputs": [
        {
          "internalType": "bytes4",
          "name": "interfaceId",
          "type": "bytes4"
        }
      ],
      "name": "supportsInterface",
      "outputs": [
        {
          "internalType": "bool",
          "name": "",
          "type": "bool"
        }
      ],
      "stateMutability": "view",
      "type": "function",
      "constant": true
    },
    {
      "inputs": [],
      "name": "symbol",
      "outputs": [
        {
          "internalType": "string",
          "name": "",
          "type": "string"
        }
      ],
      "stateMutability": "view",
      "type": "function",
      "constant": true
    },
    {
      "inputs": [
        {
          "internalType": "uint256",
          "name": "index",
          "type": "uint256"
        }
      ],
      "name": "tokenByIndex",
      "outputs": [
        {
          "internalType": "uint256",
          "name": "",
          "type": "uint256"
        }
      ],
      "stateMutability": "view",
      "type": "function",
      "constant": true
    },
    {
      "inputs": [
        {
          "internalType": "address",
          "name": "owner",
          "type": "address"
        },
        {
          "internalType": "uint256",
          "name": "index",
          "type": "uint256"
        }
      ],
      "name": "tokenOfOwnerByIndex",
      "outputs": [
        {
          "internalType": "uint256",
          "name": "",
          "type": "uint256"
        }
      ],
      "stateMutability": "view",
      "type": "function",
      "constant": true
    },
    {
      "inputs": [],
      "name": "totalSupply",
      "outputs": [
        {
          "internalType": "uint256",
          "name": "",
          "type": "uint256"
        }
      ],
      "stateMutability": "view",
      "type": "function",
      "constant": true
    },
    {
      "inputs": [
        {
          "internalType": "address",
          "name": "from",
          "type": "address"
        },
        {
          "internalType": "address",
          "name": "to",
          "type": "address"
        },
        {
          "internalType": "uint256",
          "name": "tokenId",
          "type": "uint256"
        }
      ],
      "name": "transferFrom",
      "outputs": [],
      "stateMutability": "nonpayable",
      "type": "function"
    },
    {
      "inputs": [
        {
          "internalType": "address",
          "name": "newOwner",
          "type": "address"
        }
      ],
      "name": "transferOwnership",
      "outputs": [],
      "stateMutability": "nonpayable",
      "type": "function"
    },
    {
      "inputs": [
        {
          "internalType": "address",
          "name": "_to",
          "type": "address"
        },
        {
          "internalType": "uint256",
          "name": "_mintAmount",
          "type": "uint256"
        }
      ],
      "name": "mint",
      "outputs": [],
      "stateMutability": "payable",
      "type": "function",
      "payable": true
    },
    {
      "inputs": [
        {
          "internalType": "address",
          "name": "_owner",
          "type": "address"
        }
      ],
      "name": "walletOfOwner",
      "outputs": [
        {
          "internalType": "uint256[]",
          "name": "",
          "type": "uint256[]"
        }
      ],
      "stateMutability": "view",
      "type": "function",
      "constant": true
    },
    {
      "inputs": [
        {
          "internalType": "uint256",
          "name": "tokenId",
          "type": "uint256"
        }
      ],
      "name": "tokenURI",
      "outputs": [
        {
          "internalType": "string",
          "name": "",
          "type": "string"
        }
      ],
      "stateMutability": "view",
      "type": "function",
      "constant": true
    },
    {
      "inputs": [
        {
          "internalType": "uint256",
          "name": "_newCost",
          "type": "uint256"
        }
      ],
      "name": "setCost",
      "outputs": [],
      "stateMutability": "nonpayable",
      "type": "function"
    },
    {
      "inputs": [
        {
          "internalType": "uint256",
          "name": "_newmaxMintAmount",
          "type": "uint256"
        }
      ],
      "name": "setmaxMintAmount",
      "outputs": [],
      "stateMutability": "nonpayable",
      "type": "function"
    },
    {
      "inputs": [
        {
          "internalType": "string",
          "name": "_newBaseURI",
          "type": "string"
        }
      ],
      "name": "setBaseURI",
      "outputs": [],
      "stateMutability": "nonpayable",
      "type": "function"
    },
    {
      "inputs": [
        {
          "internalType": "string",
          "name": "_newBaseExtension",
          "type": "string"
        }
      ],
      "name": "setBaseExtension",
      "outputs": [],
      "stateMutability": "nonpayable",
      "type": "function"
    },
    {
      "inputs": [
        {
          "internalType": "bool",
          "name": "_state",
          "type": "bool"
        }
      ],
      "name": "pause",
      "outputs": [],
      "stateMutability": "nonpayable",
      "type": "function"
    },
    {
      "inputs": [],
      "name": "withdraw",
      "outputs": [],
      "stateMutability": "payable",
      "type": "function",
      "payable": true
    }
  ],
  "bytecode": "0x60c06040526005608081905264173539b7b760d91b60a09081526200002891600c919062000841565b5066071afd498d0000600d556014600e819055600f556010805460ff191690553480156200005557600080fd5b50604051620030de380380620030de8339810160408190526200007891620009a1565b8251839083906200009190600090602085019062000841565b508051620000a790600190602084019062000841565b505050620000c4620000be620000e560201b60201c565b620000e9565b620000cf816200013b565b620000dc336014620001a3565b50505062000cce565b3390565b600a80546001600160a01b038381166001600160a01b0319831681179093556040519116919082907f8be0079c531659141344cd1fd0a4f28419497f9722a3daafe3b4186f6b6457e090600090a35050565b62000145620000e5565b6001600160a01b03166200015862000279565b6001600160a01b0316146200018a5760405162461bcd60e51b8152600401620001819062000b8c565b60405180910390fd5b80516200019f90600b90602084019062000841565b5050565b6000620001af62000288565b60105490915060ff1615620001c357600080fd5b60008211620001d157600080fd5b600f54821115620001e157600080fd5b600e54620001f0838362000bc1565b1115620001fc57600080fd5b6200020662000279565b6001600160a01b0316336001600160a01b0316146200023c5781600d546200022f919062000bdc565b3410156200023c57600080fd5b60015b82811162000273576200025e8462000258838562000bc1565b6200028e565b806200026a8162000c84565b9150506200023f565b50505050565b600a546001600160a01b031690565b60085490565b6200019f828260405180602001604052806000815250620002b060201b60201c565b620002bc8383620002ef565b620002cb6000848484620003da565b620002ea5760405162461bcd60e51b8152600401620001819062000a84565b505050565b6001600160a01b038216620003185760405162461bcd60e51b8152600401620001819062000b57565b620003238162000513565b15620003435760405162461bcd60e51b8152600401620001819062000ad6565b620003516000838362000530565b6001600160a01b03821660009081526003602052604081208054600192906200037c90849062000bc1565b909155505060008181526002602052604080822080546001600160a01b0319166001600160a01b03861690811790915590518392907fddf252ad1be2c89b69c2b068fc378daa952ba7f163c4a11628f55a4df523b3ef908290a45050565b6000620003fb846001600160a01b0316620005d460201b62000ed51760201c565b1562000507576001600160a01b03841663150b7a026200041a620000e5565b8786866040518563ffffffff1660e01b81526004016200043e949392919062000a2e565b602060405180830381600087803b1580156200045957600080fd5b505af19250505080156200048c575060408051601f3d908101601f19168201909252620004899181019062000970565b60015b620004ec573d808015620004bd576040519150601f19603f3d011682016040523d82523d6000602084013e620004c2565b606091505b508051620004e45760405162461bcd60e51b8152600401620001819062000a84565b805181602001fd5b6001600160e01b031916630a85bd0160e11b1490506200050b565b5060015b949350505050565b6000908152600260205260409020546001600160a01b0316151590565b62000548838383620002ea60201b620007b11760201c565b6001600160a01b03831662000568576200056281620005da565b6200058e565b816001600160a01b0316836001600160a01b0316146200058e576200058e83826200061e565b6001600160a01b038216620005ae57620005a881620006cb565b620002ea565b826001600160a01b0316826001600160a01b031614620002ea57620002ea8282620007a9565b3b151590565b600880546000838152600960205260408120829055600182018355919091527ff3f7a9fe364faab93b216da50a3214154f22a0a2b415b23a84c8169e8b636ee30155565b600060016200063884620007fa60201b62000c111760201c565b62000644919062000bfe565b60008381526007602052604090205490915080821462000698576001600160a01b03841660009081526006602090815260408083208584528252808320548484528184208190558352600790915290208190555b5060009182526007602090815260408084208490556001600160a01b039094168352600681528383209183525290812055565b600854600090620006df9060019062000bfe565b600083815260096020526040812054600880549394509092849081106200071657634e487b7160e01b600052603260045260246000fd5b9060005260206000200154905080600883815481106200074657634e487b7160e01b600052603260045260246000fd5b60009182526020808320909101929092558281526009909152604080822084905585825281205560088054806200078d57634e487b7160e01b600052603160045260246000fd5b6001900381819060005260206000200160009055905550505050565b6000620007c183620007fa60201b62000c111760201c565b6001600160a01b039093166000908152600660209081526040808320868452825280832085905593825260079052919091209190915550565b60006001600160a01b038216620008255760405162461bcd60e51b8152600401620001819062000b0d565b506001600160a01b031660009081526003602052604090205490565b8280546200084f9062000c47565b90600052602060002090601f016020900481019282620008735760008555620008be565b82601f106200088e57805160ff1916838001178555620008be565b82800160010185558215620008be579182015b82811115620008be578251825591602001919060010190620008a1565b50620008cc929150620008d0565b5090565b5b80821115620008cc5760008155600101620008d1565b600082601f830112620008f8578081fd5b81516001600160401b038082111562000915576200091562000cb8565b604051601f8301601f1916810160200182811182821017156200093c576200093c62000cb8565b60405282815284830160200186101562000954578384fd5b6200096783602083016020880162000c18565b95945050505050565b60006020828403121562000982578081fd5b81516001600160e01b0319811681146200099a578182fd5b9392505050565b600080600060608486031215620009b6578182fd5b83516001600160401b0380821115620009cd578384fd5b620009db87838801620008e7565b94506020860151915080821115620009f1578384fd5b620009ff87838801620008e7565b9350604086015191508082111562000a15578283fd5b5062000a2486828701620008e7565b9150509250925092565b600060018060a01b03808716835280861660208401525083604083015260806060830152825180608084015262000a6d8160a085016020870162000c18565b601f01601f19169190910160a00195945050505050565b60208082526032908201527f4552433732313a207472616e7366657220746f206e6f6e20455243373231526560408201527131b2b4bb32b91034b6b83632b6b2b73a32b960711b606082015260800190565b6020808252601c908201527f4552433732313a20746f6b656e20616c7265616479206d696e74656400000000604082015260600190565b6020808252602a908201527f4552433732313a2062616c616e636520717565727920666f7220746865207a65604082015269726f206164647265737360b01b606082015260800190565b6020808252818101527f4552433732313a206d696e7420746f20746865207a65726f2061646472657373604082015260600190565b6020808252818101527f4f776e61626c653a2063616c6c6572206973206e6f7420746865206f776e6572604082015260600190565b6000821982111562000bd75762000bd762000ca2565b500190565b600081600019048311821515161562000bf95762000bf962000ca2565b500290565b60008282101562000c135762000c1362000ca2565b500390565b60005b8381101562000c3557818101518382015260200162000c1b565b83811115620002735750506000910152565b60028104600182168062000c5c57607f821691505b6020821081141562000c7e57634e487b7160e01b600052602260045260246000fd5b50919050565b600060001982141562000c9b5762000c9b62000ca2565b5060010190565b634e487b7160e01b600052601160045260246000fd5b634e487b7160e01b600052604160045260246000fd5b6124008062000cde6000396000f3fe6080604052600436106101ee5760003560e01c806355f804b31161010d57806395d89b41116100a0578063c87b56dd1161006f578063c87b56dd1461052c578063d5abeb011461054c578063da3ef23f14610561578063e985e9c514610581578063f2fde38b146105a1576101ee565b806395d89b41146104c2578063a22cb465146104d7578063b88d4fde146104f7578063c668286214610517576101ee565b806370a08231116100dc57806370a0823114610458578063715018a6146104785780637f00c7a61461048d5780638da5cb5b146104ad576101ee565b806355f804b3146103ee5780635c975abb1461040e5780636352211e146104235780636c0360eb14610443576101ee565b806323b872dd1161018557806342842e0e1161015457806342842e0e14610361578063438b63001461038157806344a0d68a146103ae5780634f6ccce7146103ce576101ee565b806323b872dd146103065780632f745c59146103265780633ccfd60b1461034657806340c10f191461034e576101ee565b8063095ea7b3116101c1578063095ea7b31461029a57806313faede6146102ba57806318160ddd146102dc578063239c70ae146102f1576101ee565b806301ffc9a7146101f357806302329a291461022957806306fdde031461024b578063081812fc1461026d575b600080fd5b3480156101ff57600080fd5b5061021361020e366004611b31565b6105c1565b6040516102209190611d4a565b60405180910390f35b34801561023557600080fd5b50610249610244366004611b17565b6105ee565b005b34801561025757600080fd5b50610260610649565b6040516102209190611d55565b34801561027957600080fd5b5061028d610288366004611baf565b6106db565b6040516102209190611cb5565b3480156102a657600080fd5b506102496102b5366004611aee565b61071e565b3480156102c657600080fd5b506102cf6107b6565b6040516102209190612265565b3480156102e857600080fd5b506102cf6107bc565b3480156102fd57600080fd5b506102cf6107c2565b34801561031257600080fd5b50610249610321366004611a11565b6107c8565b34801561033257600080fd5b506102cf610341366004611aee565b610800565b610249610852565b61024961035c366004611aee565b6108b7565b34801561036d57600080fd5b5061024961037c366004611a11565b610977565b34801561038d57600080fd5b506103a161039c3660046119c5565b610992565b6040516102209190611d06565b3480156103ba57600080fd5b506102496103c9366004611baf565b610a50565b3480156103da57600080fd5b506102cf6103e9366004611baf565b610a94565b3480156103fa57600080fd5b50610249610409366004611b69565b610aef565b34801561041a57600080fd5b50610213610b45565b34801561042f57600080fd5b5061028d61043e366004611baf565b610b4e565b34801561044f57600080fd5b50610260610b83565b34801561046457600080fd5b506102cf6104733660046119c5565b610c11565b34801561048457600080fd5b50610249610c55565b34801561049957600080fd5b506102496104a8366004611baf565b610c9e565b3480156104b957600080fd5b5061028d610ce2565b3480156104ce57600080fd5b50610260610cf1565b3480156104e357600080fd5b506102496104f2366004611ac5565b610d00565b34801561050357600080fd5b50610249610512366004611a4c565b610d12565b34801561052357600080fd5b50610260610d4b565b34801561053857600080fd5b50610260610547366004611baf565b610d58565b34801561055857600080fd5b506102cf610dde565b34801561056d57600080fd5b5061024961057c366004611b69565b610de4565b34801561058d57600080fd5b5061021361059c3660046119df565b610e36565b3480156105ad57600080fd5b506102496105bc3660046119c5565b610e64565b60006001600160e01b0319821663780e9d6360e01b14806105e657506105e682610edb565b90505b919050565b6105f6610f1b565b6001600160a01b0316610607610ce2565b6001600160a01b0316146106365760405162461bcd60e51b815260040161062d906120ba565b60405180910390fd5b6010805460ff1916911515919091179055565b60606000805461065890612308565b80601f016020809104026020016040519081016040528092919081815260200182805461068490612308565b80156106d15780601f106106a6576101008083540402835291602001916106d1565b820191906000526020600020905b8154815290600101906020018083116106b457829003601f168201915b5050505050905090565b60006106e682610f1f565b6107025760405162461bcd60e51b815260040161062d9061206e565b506000908152600460205260409020546001600160a01b031690565b600061072982610b4e565b9050806001600160a01b0316836001600160a01b0316141561075d5760405162461bcd60e51b815260040161062d90612187565b806001600160a01b031661076f610f1b565b6001600160a01b0316148061078b575061078b8161059c610f1b565b6107a75760405162461bcd60e51b815260040161062d90611f49565b6107b18383610f3c565b505050565b600d5481565b60085490565b600f5481565b6107d96107d3610f1b565b82610faa565b6107f55760405162461bcd60e51b815260040161062d906121c8565b6107b183838361102f565b600061080b83610c11565b82106108295760405162461bcd60e51b815260040161062d90611d68565b506001600160a01b03919091166000908152600660209081526040808320938352929052205490565b61085a610f1b565b6001600160a01b031661086b610ce2565b6001600160a01b0316146108915760405162461bcd60e51b815260040161062d906120ba565b60405133904780156108fc02916000818181858888f193505050506108b557600080fd5b565b60006108c16107bc565b60105490915060ff16156108d457600080fd5b600082116108e157600080fd5b600f548211156108f057600080fd5b600e546108fd838361227a565b111561090857600080fd5b610910610ce2565b6001600160a01b0316336001600160a01b0316146109425781600d5461093691906122a6565b34101561094257600080fd5b60015b8281116109715761095f8461095a838561227a565b61115c565b8061096981612343565b915050610945565b50505050565b6107b183838360405180602001604052806000815250610d12565b6060600061099f83610c11565b905060008167ffffffffffffffff8111156109ca57634e487b7160e01b600052604160045260246000fd5b6040519080825280602002602001820160405280156109f3578160200160208202803683370190505b50905060005b82811015610a4857610a0b8582610800565b828281518110610a2b57634e487b7160e01b600052603260045260246000fd5b602090810291909101015280610a4081612343565b9150506109f9565b509392505050565b610a58610f1b565b6001600160a01b0316610a69610ce2565b6001600160a01b031614610a8f5760405162461bcd60e51b815260040161062d906120ba565b600d55565b6000610a9e6107bc565b8210610abc5760405162461bcd60e51b815260040161062d90612219565b60088281548110610add57634e487b7160e01b600052603260045260246000fd5b90600052602060002001549050919050565b610af7610f1b565b6001600160a01b0316610b08610ce2565b6001600160a01b031614610b2e5760405162461bcd60e51b815260040161062d906120ba565b8051610b4190600b906020840190611895565b5050565b60105460ff1681565b6000818152600260205260408120546001600160a01b0316806105e65760405162461bcd60e51b815260040161062d90611ff0565b600b8054610b9090612308565b80601f0160208091040260200160405190810160405280929190818152602001828054610bbc90612308565b8015610c095780601f10610bde57610100808354040283529160200191610c09565b820191906000526020600020905b815481529060010190602001808311610bec57829003601f168201915b505050505081565b60006001600160a01b038216610c395760405162461bcd60e51b815260040161062d90611fa6565b506001600160a01b031660009081526003602052604090205490565b610c5d610f1b565b6001600160a01b0316610c6e610ce2565b6001600160a01b031614610c945760405162461bcd60e51b815260040161062d906120ba565b6108b56000611176565b610ca6610f1b565b6001600160a01b0316610cb7610ce2565b6001600160a01b031614610cdd5760405162461bcd60e51b815260040161062d906120ba565b600f55565b600a546001600160a01b031690565b60606001805461065890612308565b610b41610d0b610f1b565b83836111c8565b610d23610d1d610f1b565b83610faa565b610d3f5760405162461bcd60e51b815260040161062d906121c8565b6109718484848461126b565b600c8054610b9090612308565b6060610d6382610f1f565b610d7f5760405162461bcd60e51b815260040161062d90612138565b6000610d8961129e565b90506000815111610da95760405180602001604052806000815250610dd7565b80610db3846112ad565b600c604051602001610dc793929190611bf3565b6040516020818303038152906040525b9392505050565b600e5481565b610dec610f1b565b6001600160a01b0316610dfd610ce2565b6001600160a01b031614610e235760405162461bcd60e51b815260040161062d906120ba565b8051610b4190600c906020840190611895565b6001600160a01b03918216600090815260056020908152604080832093909416825291909152205460ff1690565b610e6c610f1b565b6001600160a01b0316610e7d610ce2565b6001600160a01b031614610ea35760405162461bcd60e51b815260040161062d906120ba565b6001600160a01b038116610ec95760405162461bcd60e51b815260040161062d90611e05565b610ed281611176565b50565b3b151590565b60006001600160e01b031982166380ac58cd60e01b1480610f0c57506001600160e01b03198216635b5e139f60e01b145b806105e657506105e6826113c8565b3390565b6000908152600260205260409020546001600160a01b0316151590565b600081815260046020526040902080546001600160a01b0319166001600160a01b0384169081179091558190610f7182610b4e565b6001600160a01b03167f8c5be1e5ebec7d5bd14f71427d1e84f3dd0314c0f7b2291e5b200ac8c7c3b92560405160405180910390a45050565b6000610fb582610f1f565b610fd15760405162461bcd60e51b815260040161062d90611efd565b6000610fdc83610b4e565b9050806001600160a01b0316846001600160a01b031614806110175750836001600160a01b031661100c846106db565b6001600160a01b0316145b8061102757506110278185610e36565b949350505050565b826001600160a01b031661104282610b4e565b6001600160a01b0316146110685760405162461bcd60e51b815260040161062d906120ef565b6001600160a01b03821661108e5760405162461bcd60e51b815260040161062d90611e82565b6110998383836113e1565b6110a4600082610f3c565b6001600160a01b03831660009081526003602052604081208054600192906110cd9084906122c5565b90915550506001600160a01b03821660009081526003602052604081208054600192906110fb90849061227a565b909155505060008181526002602052604080822080546001600160a01b0319166001600160a01b0386811691821790925591518493918716917fddf252ad1be2c89b69c2b068fc378daa952ba7f163c4a11628f55a4df523b3ef91a4505050565b610b4182826040518060200160405280600081525061146a565b600a80546001600160a01b038381166001600160a01b0319831681179093556040519116919082907f8be0079c531659141344cd1fd0a4f28419497f9722a3daafe3b4186f6b6457e090600090a35050565b816001600160a01b0316836001600160a01b031614156111fa5760405162461bcd60e51b815260040161062d90611ec6565b6001600160a01b0383811660008181526005602090815260408083209487168084529490915290819020805460ff1916851515179055517f17307eab39ab6107e8899845ad3d59bd9653f200f220920489ca2b5937696c319061125e908590611d4a565b60405180910390a3505050565b61127684848461102f565b6112828484848461149d565b6109715760405162461bcd60e51b815260040161062d90611db3565b6060600b805461065890612308565b6060816112d257506040805180820190915260018152600360fc1b60208201526105e9565b8160005b81156112fc57806112e681612343565b91506112f59050600a83612292565b91506112d6565b60008167ffffffffffffffff81111561132557634e487b7160e01b600052604160045260246000fd5b6040519080825280601f01601f19166020018201604052801561134f576020820181803683370190505b5090505b8415611027576113646001836122c5565b9150611371600a8661235e565b61137c90603061227a565b60f81b81838151811061139f57634e487b7160e01b600052603260045260246000fd5b60200101906001600160f81b031916908160001a9053506113c1600a86612292565b9450611353565b6001600160e01b031981166301ffc9a760e01b14919050565b6113ec8383836107b1565b6001600160a01b03831661140857611403816115b8565b61142b565b816001600160a01b0316836001600160a01b03161461142b5761142b83826115fc565b6001600160a01b0382166114475761144281611699565b6107b1565b826001600160a01b0316826001600160a01b0316146107b1576107b18282611772565b61147483836117b6565b611481600084848461149d565b6107b15760405162461bcd60e51b815260040161062d90611db3565b60006114b1846001600160a01b0316610ed5565b156115ad57836001600160a01b031663150b7a026114cd610f1b565b8786866040518563ffffffff1660e01b81526004016114ef9493929190611cc9565b602060405180830381600087803b15801561150957600080fd5b505af1925050508015611539575060408051601f3d908101601f1916820190925261153691810190611b4d565b60015b611593573d808015611567576040519150601f19603f3d011682016040523d82523d6000602084013e61156c565b606091505b50805161158b5760405162461bcd60e51b815260040161062d90611db3565b805181602001fd5b6001600160e01b031916630a85bd0160e11b149050611027565b506001949350505050565b600880546000838152600960205260408120829055600182018355919091527ff3f7a9fe364faab93b216da50a3214154f22a0a2b415b23a84c8169e8b636ee30155565b6000600161160984610c11565b61161391906122c5565b600083815260076020526040902054909150808214611666576001600160a01b03841660009081526006602090815260408083208584528252808320548484528184208190558352600790915290208190555b5060009182526007602090815260408084208490556001600160a01b039094168352600681528383209183525290812055565b6008546000906116ab906001906122c5565b600083815260096020526040812054600880549394509092849081106116e157634e487b7160e01b600052603260045260246000fd5b90600052602060002001549050806008838154811061171057634e487b7160e01b600052603260045260246000fd5b600091825260208083209091019290925582815260099091526040808220849055858252812055600880548061175657634e487b7160e01b600052603160045260246000fd5b6001900381819060005260206000200160009055905550505050565b600061177d83610c11565b6001600160a01b039093166000908152600660209081526040808320868452825280832085905593825260079052919091209190915550565b6001600160a01b0382166117dc5760405162461bcd60e51b815260040161062d90612039565b6117e581610f1f565b156118025760405162461bcd60e51b815260040161062d90611e4b565b61180e600083836113e1565b6001600160a01b038216600090815260036020526040812080546001929061183790849061227a565b909155505060008181526002602052604080822080546001600160a01b0319166001600160a01b03861690811790915590518392907fddf252ad1be2c89b69c2b068fc378daa952ba7f163c4a11628f55a4df523b3ef908290a45050565b8280546118a190612308565b90600052602060002090601f0160209004810192826118c35760008555611909565b82601f106118dc57805160ff1916838001178555611909565b82800160010185558215611909579182015b828111156119095782518255916020019190600101906118ee565b50611915929150611919565b5090565b5b80821115611915576000815560010161191a565b600067ffffffffffffffff808411156119495761194961239e565b604051601f8501601f19168101602001828111828210171561196d5761196d61239e565b60405284815291508183850186101561198557600080fd5b8484602083013760006020868301015250509392505050565b80356001600160a01b03811681146105e957600080fd5b803580151581146105e957600080fd5b6000602082840312156119d6578081fd5b610dd78261199e565b600080604083850312156119f1578081fd5b6119fa8361199e565b9150611a086020840161199e565b90509250929050565b600080600060608486031215611a25578081fd5b611a2e8461199e565b9250611a3c6020850161199e565b9150604084013590509250925092565b60008060008060808587031215611a61578081fd5b611a6a8561199e565b9350611a786020860161199e565b925060408501359150606085013567ffffffffffffffff811115611a9a578182fd5b8501601f81018713611aaa578182fd5b611ab98782356020840161192e565b91505092959194509250565b60008060408385031215611ad7578182fd5b611ae08361199e565b9150611a08602084016119b5565b60008060408385031215611b00578182fd5b611b098361199e565b946020939093013593505050565b600060208284031215611b28578081fd5b610dd7826119b5565b600060208284031215611b42578081fd5b8135610dd7816123b4565b600060208284031215611b5e578081fd5b8151610dd7816123b4565b600060208284031215611b7a578081fd5b813567ffffffffffffffff811115611b90578182fd5b8201601f81018413611ba0578182fd5b6110278482356020840161192e565b600060208284031215611bc0578081fd5b5035919050565b60008151808452611bdf8160208601602086016122dc565b601f01601f19169290920160200192915050565b600084516020611c068285838a016122dc565b855191840191611c198184848a016122dc565b8554920191839060028104600180831680611c3557607f831692505b858310811415611c5357634e487b7160e01b88526022600452602488fd5b808015611c675760018114611c7857611ca4565b60ff19851688528388019550611ca4565b611c818b61226e565b895b85811015611c9c5781548a820152908401908801611c83565b505083880195505b50939b9a5050505050505050505050565b6001600160a01b0391909116815260200190565b6001600160a01b0385811682528416602082015260408101839052608060608201819052600090611cfc90830184611bc7565b9695505050505050565b6020808252825182820181905260009190848201906040850190845b81811015611d3e57835183529284019291840191600101611d22565b50909695505050505050565b901515815260200190565b600060208252610dd76020830184611bc7565b6020808252602b908201527f455243373231456e756d657261626c653a206f776e657220696e646578206f7560408201526a74206f6620626f756e647360a81b606082015260800190565b60208082526032908201527f4552433732313a207472616e7366657220746f206e6f6e20455243373231526560408201527131b2b4bb32b91034b6b83632b6b2b73a32b960711b606082015260800190565b60208082526026908201527f4f776e61626c653a206e6577206f776e657220697320746865207a65726f206160408201526564647265737360d01b606082015260800190565b6020808252601c908201527f4552433732313a20746f6b656e20616c7265616479206d696e74656400000000604082015260600190565b60208082526024908201527f4552433732313a207472616e7366657220746f20746865207a65726f206164646040820152637265737360e01b606082015260800190565b60208082526019908201527f4552433732313a20617070726f766520746f2063616c6c657200000000000000604082015260600190565b6020808252602c908201527f4552433732313a206f70657261746f7220717565727920666f72206e6f6e657860408201526b34b9ba32b73a103a37b5b2b760a11b606082015260800190565b60208082526038908201527f4552433732313a20617070726f76652063616c6c6572206973206e6f74206f7760408201527f6e6572206e6f7220617070726f76656420666f7220616c6c0000000000000000606082015260800190565b6020808252602a908201527f4552433732313a2062616c616e636520717565727920666f7220746865207a65604082015269726f206164647265737360b01b606082015260800190565b60208082526029908201527f4552433732313a206f776e657220717565727920666f72206e6f6e657869737460408201526832b73a103a37b5b2b760b91b606082015260800190565b6020808252818101527f4552433732313a206d696e7420746f20746865207a65726f2061646472657373604082015260600190565b6020808252602c908201527f4552433732313a20617070726f76656420717565727920666f72206e6f6e657860408201526b34b9ba32b73a103a37b5b2b760a11b606082015260800190565b6020808252818101527f4f776e61626c653a2063616c6c6572206973206e6f7420746865206f776e6572604082015260600190565b60208082526029908201527f4552433732313a207472616e73666572206f6620746f6b656e2074686174206960408201526839903737ba1037bbb760b91b606082015260800190565b6020808252602f908201527f4552433732314d657461646174613a2055524920717565727920666f72206e6f60408201526e3732bc34b9ba32b73a103a37b5b2b760891b606082015260800190565b60208082526021908201527f4552433732313a20617070726f76616c20746f2063757272656e74206f776e656040820152603960f91b606082015260800190565b60208082526031908201527f4552433732313a207472616e736665722063616c6c6572206973206e6f74206f6040820152701ddb995c881b9bdc88185c1c1c9bdd9959607a1b606082015260800190565b6020808252602c908201527f455243373231456e756d657261626c653a20676c6f62616c20696e646578206f60408201526b7574206f6620626f756e647360a01b606082015260800190565b90815260200190565b60009081526020902090565b6000821982111561228d5761228d612372565b500190565b6000826122a1576122a1612388565b500490565b60008160001904831182151516156122c0576122c0612372565b500290565b6000828210156122d7576122d7612372565b500390565b60005b838110156122f75781810151838201526020016122df565b838111156109715750506000910152565b60028104600182168061231c57607f821691505b6020821081141561233d57634e487b7160e01b600052602260045260246000fd5b50919050565b600060001982141561235757612357612372565b5060010190565b60008261236d5761236d612388565b500690565b634e487b7160e01b600052601160045260246000fd5b634e487b7160e01b600052601260045260246000fd5b634e487b7160e01b600052604160045260246000fd5b6001600160e01b031981168114610ed257600080fdfea2646970667358221220b510885e794d4dbe141c5d08b374bc99451cacd4407a551df75693ccfb91dbf664736f6c63430008000033",
  "immutableReferences": {},
  "source": "// SPDX-License-Identifier: MIT\r\npragma solidity ^0.8.0;\r\n\r\nimport \"@openzeppelin/contracts/token/ERC721/extensions/ERC721Enumerable.sol\";\r\nimport \"@openzeppelin/contracts/access/Ownable.sol\";\r\n\r\ncontract ToDaMoonV3 is ERC721Enumerable, Ownable {\r\n  using Strings for uint256;\r\n\r\n  string public baseURI;\r\n  string public baseExtension = \".json\";\r\n  uint256 public cost = 0.002 ether;\r\n  uint256 public maxSupply = 20;\r\n  uint256 public maxMintAmount = 20;\r\n  bool public paused = false;\r\n\r\n  constructor(\r\n    string memory _name,\r\n    string memory _symbol,\r\n    string memory _initBaseURI\r\n  ) ERC721(_name, _symbol) {\r\n    setBaseURI(_initBaseURI);\r\n    mint(msg.sender, 20); // assign x amount of tokens to sender of transaction\r\n  }\r\n\r\n  // internal\r\n  function _baseURI() internal view virtual override returns (string memory) {\r\n    return baseURI;\r\n  }\r\n\r\n  // public\r\n  function mint(address _to, uint256 _mintAmount) public payable {\r\n    uint256 supply = totalSupply();\r\n    require(!paused);\r\n    require(_mintAmount > 0);\r\n    require(_mintAmount <= maxMintAmount);\r\n    require(supply + _mintAmount <= maxSupply);\r\n\r\n    if (msg.sender != owner()) {\r\n      require(msg.value >= cost * _mintAmount);\r\n    }\r\n\r\n    for (uint256 i = 1; i <= _mintAmount; i++) {\r\n      _safeMint(_to, supply + i);\r\n    }\r\n  }\r\n\r\n  function walletOfOwner(address _owner)\r\n    public\r\n    view\r\n    returns (uint256[] memory)\r\n  {\r\n    uint256 ownerTokenCount = balanceOf(_owner);\r\n    uint256[] memory tokenIds = new uint256[](ownerTokenCount);\r\n    for (uint256 i; i < ownerTokenCount; i++) {\r\n      tokenIds[i] = tokenOfOwnerByIndex(_owner, i);\r\n    }\r\n    return tokenIds;\r\n  }\r\n\r\n  function tokenURI(uint256 tokenId)\r\n    public\r\n    view\r\n    virtual\r\n    override\r\n    returns (string memory)\r\n  {\r\n    require(\r\n      _exists(tokenId),\r\n      \"ERC721Metadata: URI query for nonexistent token\"\r\n    );\r\n\r\n    string memory currentBaseURI = _baseURI();\r\n    return bytes(currentBaseURI).length > 0\r\n        ? string(abi.encodePacked(currentBaseURI, tokenId.toString(), baseExtension))\r\n        : \"\";\r\n  }\r\n\r\n  //only owner\r\n  function setCost(uint256 _newCost) public onlyOwner {\r\n    cost = _newCost;\r\n  }\r\n\r\n  function setmaxMintAmount(uint256 _newmaxMintAmount) public onlyOwner {\r\n    maxMintAmount = _newmaxMintAmount;\r\n  }\r\n\r\n  function setBaseURI(string memory _newBaseURI) public onlyOwner {\r\n    baseURI = _newBaseURI;\r\n  }\r\n\r\n  function setBaseExtension(string memory _newBaseExtension) public onlyOwner {\r\n    baseExtension = _newBaseExtension;\r\n  }\r\n\r\n  function pause(bool _state) public onlyOwner {\r\n    paused = _state;\r\n  }\r\n\r\n  function withdraw() public payable onlyOwner {\r\n    require(payable(msg.sender).send(address(this).balance));\r\n  }\r\n}",
  "sourcePath": "C:/Users/Adrian/Desktop/BlockChain/generative_nft_collection/client/contracts/ToDaMoonV3.sol",
  "compiler": {
    "name": "solc",
    "version": "0.8.0+commit.c7dfd78e.Emscripten.clang"
  },
  "schemaVersion": "3.2.3",
  "updatedAt": "2021-12-16T03:46:56.062Z",
  "networkType": "ethereum",
  "devdoc": {
    "kind": "dev",
    "methods": {
      "approve(address,uint256)": {
        "details": "See {IERC721-approve}."
      },
      "balanceOf(address)": {
        "details": "See {IERC721-balanceOf}."
      },
      "getApproved(uint256)": {
        "details": "See {IERC721-getApproved}."
      },
      "isApprovedForAll(address,address)": {
        "details": "See {IERC721-isApprovedForAll}."
      },
      "name()": {
        "details": "See {IERC721Metadata-name}."
      },
      "owner()": {
        "details": "Returns the address of the current owner."
      },
      "ownerOf(uint256)": {
        "details": "See {IERC721-ownerOf}."
      },
      "renounceOwnership()": {
        "details": "Leaves the contract without owner. It will not be possible to call `onlyOwner` functions anymore. Can only be called by the current owner. NOTE: Renouncing ownership will leave the contract without an owner, thereby removing any functionality that is only available to the owner."
      },
      "safeTransferFrom(address,address,uint256)": {
        "details": "See {IERC721-safeTransferFrom}."
      },
      "safeTransferFrom(address,address,uint256,bytes)": {
        "details": "See {IERC721-safeTransferFrom}."
      },
      "setApprovalForAll(address,bool)": {
        "details": "See {IERC721-setApprovalForAll}."
      },
      "supportsInterface(bytes4)": {
        "details": "See {IERC165-supportsInterface}."
      },
      "symbol()": {
        "details": "See {IERC721Metadata-symbol}."
      },
      "tokenByIndex(uint256)": {
        "details": "See {IERC721Enumerable-tokenByIndex}."
      },
      "tokenOfOwnerByIndex(address,uint256)": {
        "details": "See {IERC721Enumerable-tokenOfOwnerByIndex}."
      },
      "tokenURI(uint256)": {
        "details": "See {IERC721Metadata-tokenURI}."
      },
      "totalSupply()": {
        "details": "See {IERC721Enumerable-totalSupply}."
      },
      "transferFrom(address,address,uint256)": {
        "details": "See {IERC721-transferFrom}."
      },
      "transferOwnership(address)": {
        "details": "Transfers ownership of the contract to a new account (`newOwner`). Can only be called by the current owner."
      }
    },
    "version": 1
  },
  "userdoc": {
    "kind": "user",
    "methods": {},
    "version": 1
  }
}